:020000040800F2
:10000000E00B0020E901000883360008991A000877
:100010008136000845090008013A00080000000088
:10002000000000000000000000000000873600080B
:1000300047090008000000008536000889360008DE
:10004000030200080302000803020008030200087C
:10005000030200080302000803020008030200086C
:10006000030200080302000803020008030200085C
:10007000030200080302000803020008030200084C
:10008000030200080302000803020008030200083C
:10009000030200080302000803020008030200082C
:1000A00003020008ED3600080302000803020008FE
:1000B000030200080302000803020008030200080C
:1000C00003020008030200080302000803020008FC
:1000D0000302000895390008030200080302000823
:1000E00003020008030200080302000803020008DC
:1000F00003020008030200080302000803020008CC
:1001000003020008030200080302000803020008BB
:1001100003020008030200080302000803020008AB
:10012000030200080302000803020008030200089B
:1001300000F002F800F048F80AA090E8000C8244B1
:100140008344AAF10107DA4501D100F03DF8AFF28E
:10015000090EBAE80F0013F0010F18BFFB1A43F0A5
:1001600001031847B45F0000D45F0000103A24BFB9
:1001700078C878C1FAD8520724BF30C830C144BF0C
:1001800004680C607047000000230024002500264E
:10019000103A28BF78C1FBD8520728BF30C148BFEA
:1001A0000B607047642900F0DD80752900F0DA806B
:1001B000782900F01381732900F0778300207047BD
:1001C0001FB51FBD10B510BD00F08AFB1146FFF72B
:1001D000F7FF05F089F800F0A8FB03B4FFF7F2FF82
:1001E00003BC04F018FF0000094880470948004795
:1001F000FEE7FEE7FEE7FEE7FEE7FEE7FEE7FEE7D7
:10020000FEE7FEE704480549054A064B7047000033
:10021000EB36000831010008E0050020E00B00206B
:10022000E0070020E00700207047B2F120030AD564
:10023000C2F1200320FA02F001FA03F321FA02F1DD
:1002400040EA0300704721FA03F04FF000017047C5
:100250000FB4044910B503AA029800F02BFB10BCA0
:100260005DF814FB0C0000200FB41CB5074B06AA68
:100270007B4469460090059800F0E5FA0020694645
:1002800000F0F4FA1CBC5DF814FB0000F905000056
:100290000FB41CB50C0007AA009001D02044401EEA
:1002A000074B7B4469460190069800F0CCFA002C7D
:1002B00003D06946002000F0D9FA1CBC5DF814FB9D
:1002C000D105000070B5044685690068C10601D5F6
:1002D000302600E02026C00707D070BDD4E90121F8
:1002E00030469047206A401C20626D1EF6D570BDD6
:1002F00070B5044685690078C00707D170BDD4E9A0
:10030000012120209047206A401C20626D1EF6D5F6
:1003100070BD70B50C460546012A05D028788006C8
:1003200000D5EA69002302E0012305E05B1C93424B
:1003300002D2E05C0028F9D1A869E618C01AA861C9
:10034000286A184428622846FFF7BCFF04E0D5E974
:10035000012114F8010B9047B442F8D32846FFF767
:10036000C7FF70BD2DE9F0410646002410687529CD
:10037000314616A510D0AFF30080002802DA4042C3
:1003800013A507E031688A0701D512A502E04907E5
:1003900004D511A5012401E0AFF3008000210A2259
:1003A00006F1240709E0B0FBF2FCB0FBF2F302FB1C
:1003B0001C00303078541846491C0028F3D12346DD
:1003C0002A463046BDE8F04100F0DEB900000000EA
:1003D0002D0000002B0000002000000070B5044636
:1003E0000D4621461068AFF300802188090502D52B
:1003F0000F4A7A4402E00E4A7A440E32002104F198
:10040000240305E000F00F060009965D5E54491CC8
:100410000028F7D120780023000704D5702D02D0E2
:1004200009B1022311322046BDE8704000F0ACB99A
:10043000365100002DE9F05F894604464FF0000A6E
:10044000DFF824B1FB44C0F820A02046E1688847CB
:1004500000287DD0252806D0D4E901219047206AC4
:10046000401C2062F1E700255F462046E16888478E
:100470002028064607DB312E05D2B81910F8200CCB
:1004800008B10543F1E7A80701D525F00405C4F834
:100490001CA00027C4F818A02A2E09D0304604F06A
:1004A000B3FD38B304EB8708303EC8F8186019E094
:1004B00059F8041B204604EB87029161E1688847E4
:1004C000012F064618D1E069002820DA25F0200522
:1004D0001DE0D8F8180000EB800006EB4000303833
:1004E000C8F818002046E1688847064604F08CFDED
:1004F0000028EED1012F0AD02E2E08D12046E16827
:1005000088477F1C0646022F45F02005C4DBA06902
:10051000002803DA404245F00105A061E80701D058
:1005200025F01005A6B1A6F14100192802D8203601
:1005300045F400654A463146204625604D46FFF7A2
:1005400031FE60B1012807D0ED1D25F0070000E065
:1005500007E000F1080978E705F1040975E730467E
:100560007AE7206ABDE8F09F0C51000010B5431CEB
:1005700002E010F8011B71B18107FAD14FF001328E
:1005800002C88C1A8C4314EAC211F9D0C01A0A06A8
:1005900003D0C01E10BDC01A10BD0A0401D0801EB9
:1005A00010BD0902FCD0401E10BD032A40F230806D
:1005B00010F0030C00F0158011F8013BBCF1020FA4
:1005C000624498BF11F801CB00F8013B38BF11F825
:1005D000013BA2F1040298BF00F801CB38BF00F83C
:1005E000013B11F0030300F02580083AC0F00880B9
:1005F00051F8043B083A51F804CBA0E80810F5E79D
:10060000121D5CBF51F8043B40F8043BAFF300807F
:10061000D20724BF11F8013B11F801CB48BF11F8F4
:10062000012B24BF00F8013B00F801CB48BF00F8C4
:10063000012B704710B5203AC0F00B80B1E818507C
:10064000203AA0E81850B1E81850A0E81850BFF4BC
:10065000F5AF5FEA027C24BFB1E81850A0E818505B
:1006600044BF18C918C0BDE810405FEA827C24BFAF
:1006700051F8043B40F8043B08BF7047D20728BF3D
:1006800031F8023B48BF11F8012B28BF20F8023B8C
:1006900048BF00F8012B70474FF000020429C0F05A
:1006A000128010F0030C00F01B80CCF1040CBCF1A4
:1006B000020F18BF00F8012BA8BF20F8022BA1EBF6
:1006C0000C0100F00DB85FEAC17C24BF00F8012BDB
:1006D00000F8012B48BF00F8012B70474FF00002D3
:1006E00000B5134694469646203922BFA0E80C5028
:1006F000A0E80C50B1F12001BFF4F7AF090728BF03
:10070000A0E80C5048BF0CC05DF804EB890028BF7E
:1007100040F8042B08BF704748BF20F8022B11F0A7
:10072000804F18BF00F8012B704710B5044610F039
:10073000030F08BF11F0030F40F015804FF0013E8A
:10074000121FC0F20E8051F8043BA3EB0E0C2CEAF2
:10075000030C1CEACE1C08BF40F8043BF0D0A1F10A
:10076000040102F10402521E08DB11F8013B002BC8
:1007700000F8013BF7D11146FFF78EFF204610BD70
:1007800070477047704770472DE9F0470D4699460E
:100790009246044600F124080168880604D5E06901
:1007A00021F01001216000E00120A84201DD471B7B
:1007B00000E00027A1697A1902EB0900081AA0617C
:1007C0002078C00602D42046FFF77CFD002608E012
:1007D000D4E901211AF806009047206A401C761CD3
:1007E00020624E45F4DB2078C0060AD52046FFF78C
:1007F00069FD06E0D4E9012130209047206A401CC1
:100800002062381EA7F10107F4DC07E0D4E90121DA
:1008100018F805009047206A401C2062281EA5F1A8
:100820000105F3DC2046FFF763FD2078000602D5C2
:100830000220BDE8F0870120FBE7000001694A1CA7
:1008400002610878704700B58FB0CDE90131002111
:10085000059105497944CDE9031011466846FFF733
:10086000E9FD0FB000BD0000E5FFFFFF0A6802F8D8
:10087000010B0A607047D1E900239A4202D2531C4F
:100880000B601070704710B5436913B1AFF300806F
:1008900001E0FFF73EFD012010BD127800F12401B8
:1008A0000A7000224A700122EDE711684FF0FF3212
:1008B000E9E70000074B70B50D467B44FFF7C3FF27
:1008C0000446284600F008F810B14FF0FF3070BD24
:1008D000204670BD5B470000007B00F08000704741
:1008E000754600F02BF8AE4605006946534620F0E9
:1008F0000700854618B020B5FFF784FCBDE820400E
:100900004FF000064FF000074FF000084FF0000BCB
:1009100021F00701AC46ACE8C009ACE8C009ACE87E
:10092000C009ACE8C0098D46704710B50446AFF366
:1009300000802046BDE81040FFF74FBC00487047DC
:1009400080050020FEE7704772B6FEE706490020EA
:10095000C8610648016941F004010161016941F083
:1009600040010161704700000801002000200240A2
:10097000064A0021D16106490A6942F002020A6171
:100980004861086940F04000086170470801002094
:1009900000200240044B0022DA61044A136943F04C
:1009A000010313610180704708010020002002400C
:1009B00014480022C168CB06134904D5CA6942F025
:1009C0000202CA611022C3685B0705D5CB6943F0F8
:1009D0000103CB6142F00402C369DB0707D0CB6996
:1009E00043F00403CB61C16921F00101C161A2F5AB
:1009F0008071013901D0C2607047C16921F00101E5
:100A0000C1617047002002400801002070B5054612
:100A100000F084FA0646114C09E0681C07D025B1A5
:100A200000F07CFA801BA84201D9032070BDE06869
:100A3000C007F2D1E068800601D52020E060E068C0
:100A4000C00605D4E069C00702D1E068400703D5BD
:100A5000FFF7AEFF012070BD002070BD00200240F6
:100A600070B5044600F05AFA0546601C02D00448EE
:100A70000078044400F052FA401BA042FAD370BD43
:100A8000100000202DE9F047054626480F460126B4
:100A9000017E01290FD00121814601762868DFF807
:100AA00088804CF25034022808D0A2462046FFF736
:100AB000ADFFA8B131E00220BDE8F0872046FFF786
:100AC000A5FF08BB0120FFF741FF2046FFF79EFF6F
:100AD000D8F81010064621F00401C8F810101CE0E8
:100AE0004FF0FF303860AC6811E02046FFF740FF60
:100AF0005046FFF78BFFD8F81010060021F00201D6
:100B0000C8F8101001D03C6007E004F50064D5E996
:100B1000020100EBC120A042E7D8002189F818109B
:100B20003046C9E70801002000200240034801695F
:100B300041F0800101610020704700000020024068
:100B40002DE9F05F07461C4888460024017E1546C3
:100B50001E46012909D00121814601764CF2503A06
:100B60005046FFF753FF18B122E00220BDE8F09F86
:100B7000012F02D0022F00D00427D346DFF83CA07B
:100B8000220128463146FFF750FB81B208EB4400B2
:100B9000FFF700FF5846FFF739FFDAF8102022F080
:100BA0000102CAF8102018B9641CE4B2BC42E7D3B1
:100BB000002289F81820D9E708010020002002400F
:100BC000064900200A69120607D5054A4A60054A07
:100BD0004A600969090600D50120704700200240DB
:100BE00023016745AB89EFCD2DE9F0430023454F45
:100BF0000F2581E001229A400A407BD023F00304B4
:100C0000E619D6F808809C074FEA147C05FA0CF91F
:100C100009EA0804DFF8F080404502D14FF00008EF
:100C200024E0DFF8E880404502D14FF001081DE0E4
:100C3000DFF8DC80404502D14FF0020816E0DFF813
:100C4000D480404502D14FF003080FE0DFF8C880A0
:100C5000404502D14FF0040808E0DFF8C08040456D
:100C600002D14FF0050801E04FF0060808FA0CF831
:100C7000A04522D12A4CD4F800C02CEA020CC4F8BA
:100C800000C0241DD4F800C02CEA020CC4F800C037
:100C9000234C0C34D4F800C02CEA020CC4F800C079
:100CA000241FD4F800C02CEA020CC4F800C0D6F807
:100CB00008C02CEA090CC6F808C0FF2A01D806466D
:100CC00001E000F104064FEA830401D9A4F12004F5
:100CD000D6F800C005FA04F82CEA080C4FF0040816
:100CE00008FA04F84CEA080CC6F800C0C46824EA04
:100CF0000204C46003F1010331FA03F27FF47AAF16
:100D0000BDE8F0830000014000080140000C0140F4
:100D1000001001400014014000180140001C014077
:100D2000000401402DE9F84FDFF8C8910024A9F133
:100D3000040B23460F2709F1040AABF1040ED1E09E
:100D40000125A54006EA0502AA4276D1DFF8A8C12E
:100D50004E68A6EB0C0866452BD00DDC032E34D074
:100D600005DC36B3012E19D0022E2FD11BE0112E37
:100D700016D0122E2AD119E0B8F5881F19D006DC3A
:100D8000B8F5803F15D0B8F5801F1FD111E0B8F538
:100D9000001F0ED0B8F5041F18D10AE0CB6815E08B
:100DA000CB681B1D12E0CB6808330FE0CB680C3317
:100DB0000CE08B682BB1012B4FF0080303D0456189
:100DC00004E0042302E0056100E00023FF2A01D8CB
:100DD000064601E000F104064FEA840501D9A5F1B9
:100DE0002005D6F8008007FA05FC28EA0C0803FA6B
:100DF00005F548EA0508C6F800804D68ED0070D595
:100E00003E4DAE6946F00106AE61AD6924F00306C1
:100E100005F0010500953A4D06EB050CDCF808508D
:100E2000A607360F07FA06F825EA0805DFF8D4808A
:100E3000404503D14FF0000825E052E0DFF8C880BC
:100E4000404502D14FF001081DE0DFF8C080404569
:100E500002D14FF0020816E0DFF8B480404502D11D
:100E60004FF003080FE0DFF8AC80404502D14FF0AF
:100E7000040808E0DFF8A080404502D14FF00508E3
:100E800001E04FF0060808FA06F848EA0508CCF831
:100E900008804D68D9F80060ED024D4601D5164333
:100EA00000E096432E604D68DAF80060AD025546CA
:100EB00001D5164300E096432E604D68DBF80060D4
:100EC000AD035D4601D5164300E096432E604D68A4
:100ED000DEF80060ED03754601D5164300E0964349
:100EE0002E60641C0A681646E2407FF429AFBDE814
:100EF000F88F0000080401400000111000100240AB
:100F00000000014000080140000C014000100140B9
:100F10000014014000180140001C01400148806895
:100F200070470000100000200248816802781144D8
:100F30008160704710000020074810B5016841F03B
:100F400010010160032000F085F80F2000F006F882
:100F500000F024F8002010BD0020024070B50D4DB7
:100F600004464FF47A712878B1FBF0F00A49096819
:100F7000B1FBF0F000F0ECFA48B9102C07D20022D7
:100F80002146501E00F046F800206C6070BD012024
:100F900070BD0000100000201C0000200C4808B5A7
:100FA000816941F001018161816901F001010091D4
:100FB000C16941F08051C161C06900F0805000906A
:100FC0000448416821F0E06141F00071416008BDD2
:100FD000001002400000014000280DDB00F01F025D
:100FE000012191404009800000F1E020C0F880110B
:100FF000BFF34F8FBFF36F8F7047002809DB00F0FE
:101000001F02012191404009800000F1E020C0F85A
:1010100000117047F0B40E4B1B680C46C3F302235B
:10102000C3F10705042D00D90425191D072901D294
:10103000002300E0DB1E012606FA05F1491E2140CF
:1010400099409E40761E16403143F0BC03F0CCBF61
:101050000CED00E0064900F0070208684FF6FF03B8
:10106000184040EA0220034A10430860704700001D
:101070000CED00E00000FA052DE9F0470F460500F1
:1010800061D0434E306800F00700B84209D23068A2
:1010900020F0070038433060306800F00700B842A5
:1010A00051D128683B4C810712D5400703D56068B1
:1010B00040F4E06060602878000703D5606840F481
:1010C000605060606068A96820F0F00008436060CC
:1010D0002878C00728D06868012810D02168022825
:1010E00010D0890700292EDA616821F0030101433D
:1010F0006160FFF713FF804641F288390DE02168F7
:101100008903EFE78901EDE7FFF708FFA0EB08018E
:10111000494502D90320BDE8F0876068696800F09E
:101120000C00B0EB810FEFD1306800F00700B8423F
:101130000BD9306820F0070038433060306800F089
:101140000700B84201D00120E5E72878400705D51F
:101150006068E96820F4E060084360602878000770
:1011600006D56068296920F4605040EAC1006060DB
:1011700000F038F86168084AC1F30311515CC840B7
:101180000649086006480068FFF7E8FE0020C2E74D
:101190000020024000100240145300081C000020F0
:1011A000140000200448054900684968044AC1F356
:1011B0000221515CC84070471C0000200010024012
:1011C000245300080448054900684968044AC1F3EB
:1011D000C221515CC84070471C0000200010024032
:1011E000245300080E4A51680E4801F00C03042BEA
:1011F00011D0082B0FD10C48C1F38343C903C05C45
:101200000AD55168084AC1F34041921E515C054A13
:101210005043B0FBF1F07047044948437047000069
:101220000010024000127A000453000800093D003B
:101230002DE9F84F040070D02078C04DC00749D088
:101240006868C0F38100012807D06868C0F3810096
:10125000022809D16868C00306D52868800339D5FB
:1012600060680028E7D035E06068B0F5803F0BD0BB
:1012700010B1B0F5A02F11D0286820F4803028607C
:10128000286820F4802002E0286840F4803028603C
:10129000606890B1FFF742FE06460AE0286840F415
:1012A00080202860F0E700BFFFF738FE801B64282D
:1012B00073D828688003F7D50CE0FFF72FFE0646A9
:1012C00005E000BFFFF72AFE801B6428F0D82868DD
:1012D0008003F7D420789A4E80074FF001094FF031
:1012E000000839D5686810F00C0F07D06868C0F3A3
:1012F0008100022809D16868C00306D428688007E5
:1013000014D52069012808D110E02069B0B1C6F8D1
:101310000090FFF703FE074605E00AE1FFF7FEFD38
:10132000C01B0228C4D828688007F7D528686169DF
:1013300020F0F80040EAC10028600DE0C6F8008007
:10134000FFF7ECFD074604E0FFF7E8FDC01B0228AD
:1013500023D828688007F7D4207800072CD579484F
:10136000A169D9B1C0F80090FFF7D8FD074604E0A5
:10137000FFF7D4FDC01B02280FD8686A8007F7D595
:1013800071484FF4FA510068B0FBF1F0009000BFD3
:101390000098411E0091FAD20EE080E0C0F8008073
:1013A000FFF7BCFD074604E0FFF7B8FDC01B0228AD
:1013B00075D8686A8007F7D42078400760D5E86957
:1013C0000027C00008D4E86940F08050E861E8696F
:1013D000012700F0805000905C480168C90513D4D3
:1013E0000168834641F480710160FFF797FD8246F2
:1013F00006E000BFFFF792FDA0EB0A0064284ED87C
:10140000DBF80000C005F5D5E06801280AD008B176
:10141000052813D0286A20F001002862286A20F0ED
:10142000040002E0286A40F001002862E06841F20E
:10143000883B98B1FFF772FD82460BE0286A40F0C6
:1014400004002862EEE700BFFFF768FDA0EB0A0189
:1014500059455AD8286A8007F6D50CE0FFF75EFD9B
:10146000824605E0FFF75AFDA0EB0A0159454CD82A
:10147000286A8007F6D41FB1E86920F08050E8613F
:10148000E06988B36968C1F38101022944D0022868
:10149000C6F8608004D0FFF741FD044638E034E030
:1014A000FFF73CFD074604E0FFF738FDC01B0228AC
:1014B0002BD828688001F7D4206AB0F5803F05D189
:1014C0006868A16820F4003008436860D4E9080126
:1014D0000843696821F4741108436860C6F8609095
:1014E000FFF71CFD044606E025E000BFFFF716FDF0
:1014F000001B022809D828688001F7D51BE000BF2F
:10150000FFF70CFD001B022802D90320BDE8F88F6D
:1015100028688001F4D40EE00128F7D06868226AB8
:1015200000F48031914204D1616A00F47010884265
:1015300001D00120EAE70020E8E7000000100240A7
:1015400000004242800442421C0000200070004023
:1015500010B5401EB0F1807F01D3012010BD4FF0C7
:10156000E02460610F21601703F03EFD0020A061C0
:1015700007202061002010BD70B590F83C20012AA2
:101580002CD0012480F83C40022280F83D200368E2
:101590005A689D6822F070060A6832435A60104B00
:1015A00002689A420ED00F4B9A420BD0B2F1804F94
:1015B00008D00D4B9A4205D00C4B9A4202D00C4BEE
:1015C0009A4204D1496825F080031943916080F85C
:1015D0003D40002180F83C10084670BD022070BDDF
:1015E000002C01400034014000040040000800408D
:1015F000000C004010B50446022084F83D0020682D
:10160000016A41F21112114207D1016A921011428E
:1016100003D1016821F001010160204600F046F885
:10162000002084F8460084F83E0084F83F0084F8E7
:10163000400084F8410084F8420084F8430084F8B4
:10164000440084F8450084F83D0084F83C0010BD57
:1016500010B5040003D094F83D0010B107E001205C
:1016600010BD002084F83C00204600F031F8022034
:1016700084F83D00211D206802F04CF8012084F818
:10168000460084F83E0084F83F0084F8400084F867
:10169000410084F8420084F8430084F8440084F850
:1016A000450084F83D00002010BD00000068064998
:1016B000884207D10548816921F4006181611920C0
:1016C000FFF78ABC70470000002C01400010024068
:1016D00008B500680B49884212D10B48816941F472
:1016E000006181618069002200F400600090114671
:1016F0001920FFF78FFCBDE808401920FFF77DBCDB
:1017000008BD0000002C01400010024001680A6A78
:1017100041F211131A4207D10A6A9B101A4203D1EF
:101720000A6822F001020A60012180F83D100020C1
:1017300070470168CA6822F00102CA6001680A6A3B
:1017400041F211131A4207D10A6A9B101A4203D1BF
:101750000A6822F001020A60012180F83D10002091
:10176000704770B5044690F83C000025012817D05A
:10177000012684F83C60022084F83D0020688268DD
:1017800022F0770222F47F4282600868502838D025
:101790000DDC20284FD005DC90B3102811D14AE091
:1017A000022070BD302846D040280AD13BE0602896
:1017B0002FD070280DD0B0F5805F03D0B0F5005F5A
:1017C00012D0012584F83D60002084F83C002846B2
:1017D00070BDCB68D1E90121206801F0E9FF2068E4
:1017E000816841F0770109E0CB68D1E901212068E7
:1017F00001F0DEFF2068816841F480418160E1E70B
:1018000019E0CA684968206801F0E4FF50212068A7
:1018100006E0CA684968206801F0EDFF6021206891
:1018200001F0D0FFCEE7CA684968206801F0D2FF16
:1018300040212068F4E7226801461046F0E710B521
:10184000040015D0242084F841002068C16821F4E8
:101850000051C160204600F03FF80020606484F829
:10186000410084F8420044F8300F6060207410BDDD
:10187000012010BD70B5040004D094F8410000258B
:1018800010B106E0012070BD84F84050204600F001
:101890004DF8242084F841002068C16821F40051EB
:1018A000C160204601F0E0FF2068016921F4904109
:1018B00001612068416921F02A0141612068C16805
:1018C00041F40051C1606564202084F8410084F82F
:1018D00042006563002070BD10B5104B02681049CE
:1018E00010489A420CD18A6922F480428A614FF4EE
:1018F000C061FFF779F9BDE810402520FFF76CBB08
:10190000094B9A4208D1CA6922F40032CA61BDE883
:1019100010400C21FFF768B910BD000000380140ED
:1019200000100240000801400044004070B586B03D
:10193000002400940194029403942B4E03682B49D5
:10194000022003222A4DB34229D18B6943F48043FC
:101950008B618B6903F4804304938B6943F0040328
:101960008B618969039201F0040104910102CDE9C0
:10197000001069462846FFF7D5F92815CDE900047F
:10198000694628460294FFF7CDF90022114625202A
:10199000FFF740FB2520FFF730FB06B070BD154E6A
:1019A000B342FAD1CB6943F40033CB61CB6903F482
:1019B000003304938B6943F004038B6189690392BC
:1019C00001F0040104910421CDE900106946284684
:1019D000FFF7A8F90820CDE90004694628460294DB
:1019E000FFF7A0F9D9E700000038014000100240DD
:1019F00000080140004400402DE9F843044690F8F7
:101A00004100984616460D46202802D00220BDE827
:101A1000F88385B17EB100206064212084F8410004
:101A2000FFF77CFAA6848146E684A0682027B0F5FB
:101A3000805F02D003E00120E9E7206910B12E4663
:101A400000250EE000260CE08021204601F068FF12
:101A5000A8B9C6B116F8010B21684860E08C401E99
:101A6000E084E08C4B464FF00002CDF80080002867
:101A7000EAD14FF04001204601F052FF40B184F816
:101A800041700320C3E735F8020BC0F30800E3E719
:101A900084F841700020BAE7FEE7000010B5FFF7B8
:101AA0003DFA0A4C01460A482268FEF7D1FB00F0D5
:101AB000E5FF00F03BFFFFF731FA014605482268D9
:101AC000FEF7C6FBBDE8104001F02AB82000002058
:101AD00038570008C857000810B500F01DFD0E4C1F
:101AE00088B1FFF71BFA01460CA02268FEF7B0FB95
:101AF00000F058FDFFF712FA014617482268FEF77A
:101B0000A7FB032010BDFFF709FA0146134822681E
:101B1000FEF79EFB022010BD200000201B5B303B27
:101B200033326D4920282564292025733A204170DD
:101B3000706C69636174696F6E207570677261643F
:101B40006520666C616720646574656374656421F3
:101B50001B5B306D0D0A00007C570008945600088E
:101B600010B5FFF7DBF90A4C01460AA02268FEF720
:101B70006FFB642000F066FD00F06CFDFFF7CEF90E
:101B8000014611A02268FEF763FB052010BD00008E
:101B9000200000201B5B303B33326D492028256438
:101BA000292025733A204A756D70696E6720746F1D
:101BB000206170706C69636174696F6E2E2E2E1BCC
:101BC0005B306D0D0A0000001B5B303B33316D450F
:101BD00020282564292025733A204661696C6564B4
:101BE00020746F206A756D7020746F206170706C46
:101BF00069636174696F6E211B5B306D0D0A0000B3
:101C00002DE9FC410446FFF789F94FF00308CDF8B0
:101C10000080244D2368014623485B1C2A68FEF798
:101C200017FB00F015FA064600F07AF8002796B187
:101C3000022E1CD02068401C206003281FD3FFF711
:101C40006DF90146032319482A68FEF701FB0220BB
:101C50002760BDE8FC81FFF761F9014614A02A68FE
:101C6000FEF7F6FA4FF47A7000F0ECFCEFE7FFF7BE
:101C700055F901461CA02A68FEF7EAFAE7E7FFF7E4
:101C80004DF922680146521CCDE900284FF4FA6450
:101C9000234622482A68FEF7DBFA204600F0D2FCF1
:101CA0000320D6E720000020B8550008E0560008C1
:101CB0001B5B303B33326D49202825642920257376
:101CC0003A205570677261646520636F6D706C6552
:101CD000746564207375636365737366756C6C7982
:101CE000211B5B306D0D0A001B5B303B33326D49AD
:101CF00020282564292025733A2055706772616475
:101D0000652063616E63656C6C6564206279207523
:101D10007365721B5B306D0D0A000000685500088A
:101D200010B50C4C38B102280BD0FFF7F7F801467C
:101D300009A022680AE0FFF7F1F8014612A0226824
:101D400004E0FFF7EBF8014622681BA0BDE8104055
:101D5000FEF77EBA200000201B5B303B33316D451F
:101D600020282564292025733A203D3D3D205550EB
:101D70004752414445204641494C4544203D3D3D64
:101D80001B5B306D0D0A00001B5B303B33326D492D
:101D900020282564292025733A203D3D3D205550BB
:101DA00047524144452053554343455353203D3DFD
:101DB0003D1B5B306D0D0A001B5B303B33326D49C0
:101DC00020282564292025733A203D3D3D2055508B
:101DD00047524144452043414E43454C4C454420E5
:101DE0003D3D3D1B5B306D0D0A00000010B5FFF757
:101DF00095F80B4C01460BA02268FEF729FA00F07B
:101E0000F1FD00F0A3FE00F04BFE01F027FFFFF70D
:101E100085F822680146BDE8104012A0FEF718BA06
:101E2000200000201B5B303B33326D4920282564A5
:101E3000292025733A20496E697469616C697A6951
:101E40006E672049415020426F6F746C6F6164650A
:101E500072206D6F64756C65732E2E2E1B5B306D5A
:101E60000D0A00001B5B303B33326D49202825648E
:101E7000292025733A2049415020426F6F746C6FBE
:101E80006164657220696E697469616C697A6174F4
:101E9000696F6E20636F6D706C657465641B5B3079
:101EA0006D0D0A0008B5002426460094FFF736F8A9
:101EB0002B4D01462BA02A68FEF7CAF900F0C2F9A3
:101EC000FFF72CF80146234636A02A68FEF7C0F932
:101ED000052C2FD2DFE804F0030E11262A00FFF7AD
:101EE0001DF801463DA02A68FEF7B2F900F00EFA8F
:101EF0000124E5E7FFF7F0FD1AE000F0A5FA40B194
:101F0000FFF70CF8014644A02A68FEF7A1F9042463
:101F1000D6E7FFF703F801464B482A68FEF798F921
:101F20000324CDE76846FFF76BFE01E0FFF718FEDC
:101F30000446C5E7FEF7F2FF01462F4643482A68EC
:101F4000FEF786F94FF4FA6000F07CFB0096FEF78E
:101F5000E5FF0146334613A03A68FEF779F9BEE77C
:101F6000200000201B5B303B33326D492028256464
:101F7000292025733A205374617274696E67204971
:101F8000415020426F6F746C6F61646572206D61A7
:101F9000696E206C6F6F702E2E2E1B5B306D0D0ADC
:101FA000000000001B5B303B33346D442028256467
:101FB000292025733A203D3D3D20426F6F746C6FA0
:101FC000616465722053746174653A202564203D14
:101FD0003D3D1B5B306D0D0A000000001B5B303B7C
:101FE00033326D4920282564292025733A20426F19
:101FF0006F746C6F6164657220696E697469616C7D
:10200000697A6174696F6E20636F6D706C65746559
:10201000641B5B306D0D0A001B5B303B33326D4936
:1020200020282564292025733A2056616C69642094
:102030006170706C69636174696F6E20666F756E34
:10204000641B5B306D0D0A00FC5500084C560008FF
:1020500030B5D7B0FEF762FF1E4C01461EA02268C5
:10206000FEF7F6F8FEF75AFF014629480090294B83
:1020700029A02268FEF7ECF801A802F045FA050055
:102080000CD0032D1DD0FEF749FF01462B4631A091
:102090002268FEF7DDF8012057B030BDFEF73EFFA5
:1020A00001463CA02268FEF7D3F8FEF737FF014651
:1020B0004198009001AB47A02268FEF7C9F80020C4
:1020C000EAE7FEF72BFF01464FA02268FEF7C0F8B3
:1020D0000220E1E7200000201B5B303B33326D49DA
:1020E00020282564292025733A20526561647920CF
:1020F000666F7220596D6F64656D207472616E73C6
:102100006665722E2E2E1B5B306D0D0A00000000DE
:1021100000000808008200081B5B303B33346D442C
:1021200020282564292025733A204150505F5354BC
:102130004152543A203078253038582C20415050A4
:102140005F454E443A203078253038581B5B306D5F
:102150000D0A00001B5B303B33316D4520282564A0
:10216000292025733A204669726D77617265207562
:102170007064617465206661696C65642077697458
:1021800068207374617475733A2025641B5B306D2D
:102190000D0A00001B5B303B33326D49202825645B
:1021A000292025733A204669726D77617265207522
:1021B000706461746520636F6D706C657465642014
:1021C0007375636365737366756C6C79211B5B3023
:1021D0006D0D0A001B5B303B33326D4920282564AE
:1021E000292025733A2055706461746564206669FE
:1021F0006C653A20257320282575206279746573F3
:10220000291B5B306D0D0A001B5B303B33326D497F
:1022100020282564292025733A204669726D77614C
:102220007265207570646174652063616E63656CAE
:102230006C65642062792073656E6465721B5B3027
:102240006D0D0A0010B50948FEF702F808A0FDF769
:10225000FFFF14A118A0FDF7FBFF1FA0FDF7F8FF7B
:10226000BDE8104002A0FDF7F3BF0000FC1B000812
:102270002A2A2A2A2A2A2A2A2A2A2A2A2A2A2A2ABE
:102280002A2A2A2A2A2A2A2A2A2A2A2A2A2A2A2AAE
:102290002A2A2A2A2A2A2A2A2A2A2A2A2A2A2A2A9E
:1022A0002A0D0A0049415020426F6F746C6F6164BF
:1022B00065722076312E30002A2020202020202018
:1022C00020202020257320202020202020202020B6
:1022D00020202A0D0A0000002A20202020526561BB
:1022E000647920666F72206669726D77617265200D
:1022F000757067726164652076696120596D6F64DD
:10230000656D20202020202A0D0A000010B54FF016
:10231000006111A0FDF79CFF154916A0FDF798FF7D
:102320001A491BA0FDF794FF4FF400711EA0FDF7A2
:102330008FFF40F2DF1122A0FDF78AFF26A0FDF7F4
:1023400087FFFEF7EBFD014630480268BDE810400C
:102350002FA0FDF77DBF0000426F6F7420416464C1
:10236000726573733A203078253038580D0A0000B2
:102370000082000841707020416464726573733A92
:1023800020203078253038580D0A00000000080859
:1023900041707020456E643A202020202020307843
:1023A000253038580D0A0000466C61736820536967
:1023B0007A653A20202025754B420D0A0000000066
:1023C000417070204D61782053697A653A202575F7
:1023D0004B420D0A000000002D2D2D2D2D2D2D2DF1
:1023E0002D2D2D2D2D2D2D2D2D2D2D2D2D2D2D2D1D
:1023F0002D2D2D2D2D2D2D2D2D2D2D2D2D2D2D2D0D
:102400002D2D2D2D2D2D2D2D2D0D0A0020000020E0
:102410001B5B303B33346D44202825642920257311
:102420003A2053797374656D20696E666F726D61C1
:1024300074696F6E20646973706C617965641B5B8D
:10244000306D0D0A000000001FB5002001900290C1
:102450000390FEF763FD104C014610A02268FDF7C3
:10246000F7FE01A802F0C0FE60B1FEF757FD01467D
:1024700002980090019B18482268FDF7E9FE0020B1
:1024800004B010BDFEF74AFD014614A02268FDF716
:10249000DFFE0120F4E70000240000201B5B303B3E
:1024A00033346D4420282564292025733A20537441
:1024B000617274696E67206170706C6963617469C0
:1024C0006F6E2076616C69646174696F6E2E2E2E5A
:1024D0001B5B306D0D0A0000885900081B5B303B08
:1024E00033346D4420282564292025733A20417017
:1024F000706C69636174696F6E2076616C69646188
:1025000074696F6E207375636365737366756C1B96
:102510005B306D0D0A00000038B54FF000552C6897
:10252000FEF7FCFC2B460E4D014600940D482A6830
:10253000FDF78EFE0C48844208D1FEF7EFFC014601
:102540000A482A68FDF784FE012038BDFEF7E6FC44
:10255000014607A02A68FDF77BFE002038BD000079
:1025600024000020F05800083CC3A55A245A000853
:102570001B5B303B33346D442028256429202573B0
:102580003A204E6F207570677261646520666C61D9
:10259000672064657465637465641B5B306D0D0A48
:1025A0000000000070B54FF00055FEF7B7FC094C75
:1025B00001462B4608A02268FDF74AFE002028604D
:1025C000FEF7ACFC2268BDE87040014611A0FDF7A3
:1025D0003FBE0000240000201B5B303B33346D44C1
:1025E00020282564292025733A20436C656172698F
:1025F0006E67207570677261646520666C61673A0A
:1026000020616464723D3078253038581B5B306D32
:102610000D0A00001B5B303B33346D4420282564D9
:10262000292025733A205570677261646520666CB5
:10263000616720636C65617265641B5B306D0D0AB8
:1026400000000000002801D0FEF70ABA7047FEF72C
:1026500065BC0000F8B5FEF761FC2E4C01462EA0CB
:102660002268FDF7F5FDFFF7EFFE00282AD0394874
:1026700000F0F8F801282BD0FEF750FC0146364850
:102680002268FDF7E5FD3548D0F80062D0F8045225
:10269000FEF744FC00950146334631482268FDF7B9
:1026A000D7FDFEF73BFC01462EA02268FDF7D0FDCA
:1026B00002F04AFD002819D0FEF730FC014636A092
:1026C000226822E0FEF72AFC0146424822681CE00C
:1026D00041A0FDF7BDFD1F4802F0B2FC49A0FDF787
:1026E000B7FD4FF47A70FFF7ADFFCCE786F30888AB
:1026F000514950480860BFF34F8FBFF36F8FA84711
:10270000FEF70CFC014622684CA0BDE8F840FDF73E
:102710009FBD0000240000201B5B303B33346D4420
:1027200020282564292025733A2050726570617233
:10273000696E6720746F206A756D7020746F2061F8
:1027400070706C69636174696F6E2E2E2E1B5B3026
:102750006D0D0A00400500201C580008008000088C
:10276000E05900081B5B303B33346D44202825645E
:10277000292025733A204A756D70696E6720746F41
:10278000206170706C69636174696F6E2E2E2E1BF0
:102790005B306D0D0A0000001B5B303B33346D4431
:1027A00020282564292025733A204661696C6564D8
:1027B00020746F2070726570617265206A756D702B
:1027C00020656E7669726F6E6D656E741B5B306D21
:1027D0000D0A00006C5A00083D3D3D204170706CB0
:1027E00069636174696F6E204669726D77617265A5
:1027F00020496E666F726D6174696F6E203D3D3D5C
:102800000D0A00003D3D3D3D3D3D3D3D3D3D3D3DD5
:102810003D3D3D3D3D3D3D3D3D3D3D3D3D3D3D3DE8
:102820003D3D3D3D3D3D3D3D3D3D3D3D3D3D0D0A3B
:10283000000000000082000808ED00E01B5B303B58
:1028400033346D4420282564292025733A204A75A5
:102850006D70206661696C6564211B5B306D0D0ACB
:1028600000000000F8B51D4D040024D04021FDF704
:1028700013FF1B4EFEF752FB0146334619482A68E8
:10288000FDF7E6FC5FF0000056F8202044F8202019
:10289000401C1028F8D32068134EB04213D0FEF726
:1028A0003DFB014620680090334610482A68FDF73A
:1028B000CFFC0020F8BDFEF731FB01460CA02A68D2
:1028C000FDF7C6FCF5E7FEF729FB014604F12403FA
:1028D00015482A68FDF7BCFC0120F8BD2400002043
:1028E00000800008AC5800087856341238590008A7
:1028F0001B5B303B33346D4420282564292025732D
:102900003A204669726D7761726520686561646519
:102910007220706F696E746572206973204E554C19
:102920004C1B5B306D0D0A00B45A0008FEF7FEB870
:10293000104910B5014486B0B1F5F02F14D2C40A85
:10294000E402204600F04CF988B9FEF739F900207E
:1029500000900120CDE9024004A96846FEF792F8F4
:102960000446FEF7E3F814B1012006B010BD0020C4
:10297000FBE700000080FFF72DE9F041044617480F
:10298000002686B00D46844207D31548854204D8F8
:10299000AC4202D200F03AF818B1012006B0BDE80E
:1029A000F0816FF30A0400274FF001080FE0204682
:1029B00000F016F948B9CDE9024804A96846009725
:1029C000FEF760F808B1012603E004F50064AC42AC
:1029D000EDD3FEF7ABF83046E0E7000000800008DA
:1029E000000008080248016841F0100101607047CA
:1029F0000020024004490844B0F5F02F01D2012024
:102A000070470020704700000080FFF710B5FEF708
:102A1000D7F8002800D0012010BD2DE9F04115465F
:102A20000E0007460BD055B1FFF7E4FF38B1781917
:102A3000401EFFF7DFFF10B1FFF7E8FF10B10120E4
:102A4000BDE8F081002413E0601CA84202D23019D6
:102A5000028802E0305D40F47F42391900230120F2
:102A6000FEF76EF810B1FEF761F8E8E7A41CA4B217
:102A7000AC42E9D3FEF75AF80020E1E7074810B569
:102A80000068C16821F00101C1600448FEF751FEF1
:102A9000BDE810400148FEF7ADBD00002C0000204D
:102AA00000F082BD154908B50868C26822F020020E
:102AB000C26013480022A0F81424A0F8122480F861
:102AC0001024A0F81624086800E041680168C94392
:102AD0008906FAD501684168009101684168009152
:102AE000016841680091016841680091016841688E
:102AF0000091C16841F02001C16008BD7400002050
:102B0000280100200548B0F81214B0F814048142DE
:102B100001D00120704700207047000028010020EC
:102B200009480168CA6822F02002CA600168CA68C0
:102B300022F01002CA600068C16821F08001C16003
:102B40000148FEF77CBE00007400002010B500F0C4
:102B50005FFD03480068C16841F02001C16010BDFD
:102B6000740000201249B1F81224B1F814349A42CA
:102B70001BD0B1F814248A5C0270B1F814044FF42D
:102B80008262401CB0FBF2F302FB1300A1F81404B4
:102B9000B1F81204B1F81424904204D1002081F855
:102BA0001004A1F8160400207047012070470000AF
:102BB00028010020FFF7D6BF0249012081F8100448
:102BC000704700002801002001B54FF0FF330122BB
:102BD00069460248FEF710FF08BD0000740000209F
:102BE00000214FF400634258521C01D0002070476E
:102BF000091D9942F7D301207047000030B593B00A
:102C00000C460546402219A16846FDF713FD002237
:102C10000DF1400122F00300204493070069DB0E10
:102C2000D8408854521C082AF4D3208AC0F3C50027
:102C3000382802D2C0F1380201E0C0F178026946BA
:102C4000204600F063FC082210A9204600F05EFC3C
:102C50005FF0000222F0030091072058C90EC8401F
:102C6000A854521C102AF5D313B030BD80000000C8
:102C70000000000000000000000000000000000054
:102C80000000000000000000000000000000000044
:102C90000000000000000000000000000000000034
:102CA0000000000000000000000000000021416161
:102CB000016105490160054941600349C9438160DB
:102CC0000249C943C16070470123456789ABCDEF15
:102CD0002DE9F0478846D0E90051D0E9023490B0A0
:102CE00089460022EA4600BF08EB820696F802C039
:102CF0003788F6786CF31F4747EA06674AF8227070
:102D0000521C102AF0D301EA030224EA01063243DE
:102D1000FE4E3244009E2E44324401EB726202EABF
:102D2000010623EA02073E43F94F3E44019F274430
:102D30003E4402EB365606EA020721EA060C47EA51
:102D40000C07DFF8D0C36744DDF808C09C44674433
:102D500006EBF73707EA060C22EA07084CEA080CEC
:102D6000DFF8B483C444DDF80C804144614407EBD0
:102D7000B12101EA070C26EA01084CEA080CDFF849
:102D80009C83C444DDF810804244624401EB7262CB
:102D900002EA010C27EA02084CEA080CDFF88083FB
:102DA000C444DDF814804644664402EB365606EA15
:102DB000020C21EA06084CEA080CDFF86883C444D8
:102DC000DDF818804744674406EBF73707EA060C3E
:102DD00022EA07084CEA080CDFF84C83C444DDF80B
:102DE0001C804144614407EBB12101EA070C26EA4B
:102DF00001084CEA080CDFF83483C444DDF8208075
:102E00004244624401EB726202EA010C27EA0208C2
:102E10004CEA080CDFF81883C444DDF824804644EB
:102E2000664402EB365606EA020C21EA06084CEA32
:102E3000080CDDF82880ACF5244C4744ACF14F0C6D
:102E4000674406EBF73707EA060C22EA07084CEA64
:102E5000080CDFF8E082C444DDF82C804144614472
:102E600007EBB12101EA070C26EA01084CEA080C3D
:102E7000DFF8C482C444DDF830804244624401EB90
:102E8000726202EA010C27EA02084CEA080CDFF839
:102E9000AC82C444DDF834804644664402EB3656C6
:102EA00006EA020C21EA06084CEA080CDFF89082D8
:102EB000C444DDF838804744674406EBF73707EA37
:102EC000060C22EA07084CEA080CDFF87882C444B2
:102ED000DDF83C804144614407EBB12101EA060C76
:102EE00027EA06084CEA080CDFF85C82C444DDF8E7
:102EF00004804244624401EBF26202EA070C21EAD8
:102F000007084CEA080CDFF84482C444DDF8188056
:102F10004644664402EBF65606EA010C22EA010832
:102F20004CEA080CDFF82882C444DDF82C804744C2
:102F3000674406EBB74707EA020C26EA02084CEAA8
:102F4000080CDFF81082C444DDF80080414461447D
:102F500007EB313101EA060C27EA06084CEA080CB7
:102F6000DFF8F481C444DDF814804244624401EB8C
:102F7000F26202EA070C21EA07084CEA080CDFF8C3
:102F8000DC81C444DDF828804644664402EBF656F2
:102F900006EA010C22EA01084CEA080CDFF8C081BD
:102FA000C444DDF83C804744674406EBB74707EA72
:102FB000020C26EA02084CEA080CDFF8A881C44497
:102FC000DDF810804144614407EB313101EA060C21
:102FD00027EA06084CEA080CDFF88C81C444DDF8C7
:102FE00024804244624401EBF26202EA070C21EAC7
:102FF00007084CEA080CDFF87481C444DDF8388017
:103000004644664402EBF65606EA010C22EA010841
:103010004CEA080CDFF85881C444DDF80C804744C2
:10302000674406EBB74707EA020C26EA02084CEAB7
:10303000080CDFF84081C444DDF82080414461443D
:1030400007EB313101EA060C27EA06084CEA080CC6
:10305000DFF82481C444DDF834804244624401EB4B
:10306000F26202EA070C21EA07084CEA080CDFF8D2
:103070000C81C444DDF808804644664402EBF656F1
:1030800006EA010C22EA01084CEA080CDFF8F0809D
:10309000C444DDF81C804744674406EBB74C0CEA97
:1030A000020726EA020847EA0807DFF8D880474403
:1030B000DDF8308041443944059F0CEB31313A440E
:1030C00081EA0C07DFF8C080774047443A44089F04
:1030D00001EB32723E4482EA010787EA0C07DFF80F
:1030E000AC8047443E440B9F02EB7656674486EA29
:1030F000020CDFF89C808CEA010CC4446744DDF8C4
:1031000038C006EB3747614444E0000078A46AD732
:1031100056B7C7E8DB702024EECEBDC1AF0F7CF5FB
:103120002AC68747134630A8019546FDD89880697E
:10313000AFF7448BBED75C892211906B937198FDD9
:103140008E4379A62108B44962251EF640B340C0DB
:10315000515A5E26AAC7B6E95D102FD65314440211
:1031600081E6A1D8C8FBD3E7E6CDE121D60737C376
:10317000870DD5F4ED145A4505E9E3A9F8A3EFFC52
:10318000D9026F678A4C2A8D4239FAFF81F671871E
:1031900022619D6D87EA060CDFF8FC828CEA020C46
:1031A000C4446144DDF804C007EB7121624481EA44
:1031B000070CDFF8E8828CEA060CC4446244DDF8B0
:1031C00010C001EB3272664482EA010CDFF8D08253
:1031D0008CEA070CC4446644DDF81CC002EB76564A
:1031E000674486EA020CDFF8BC828CEA010CC44416
:1031F0006744DDF828C006EB3747614487EA060CD0
:10320000DFF8A4828CEA020CC4446144DDF834C0C7
:1032100007EB7121624481EA070CDFF890828CEAA7
:10322000060CC4446244DDF800C001EB327266440F
:1032300082EA010CDFF878828CEA070CC444664409
:10324000DDF80CC002EB7656674486EA020CDFF824
:1032500064828CEA010CC4446744DDF818C006EBB4
:103260003747614487EA060CDFF84C828CEA020C8F
:10327000C4446144DDF824C007EB7121624481EA53
:10328000070CDFF838828CEA060CC4446244DDF88F
:1032900030C001EB3272664482EA010CDFF8208212
:1032A0008CEA070CC4446644DDF83CC002EB765659
:1032B000674486EA020CDFF80C828CEA010CC444F5
:1032C0006744DDF808C006EB3747614487EA060C1F
:1032D000DFF8F4818CEA020CC4446144DDF800C0DC
:1032E00007EB7121624461EA060CDFF8E0818CEAA9
:1032F000070CC4446244DDF81CC001EBB2626644B2
:1033000062EA070CDFF8C8818CEA010CC444664409
:10331000DDF838C002EBB656674466EA010CDFF808
:10332000B4818CEA020CC4446744DDF814C006EB97
:103330007747614467EA020CDFF89C818CEA060C4F
:10334000C4446144DDF830C007EBF121624461EA16
:10335000060CDFF888818CEA070CC4446244DDF86F
:103360000CC001EBB262664462EA070CDFF87081C0
:103370008CEA010CC444664402EBB656DDF828C062
:10338000DFF86081674466EA010C8CEA020CC444F1
:103390006744DDF804C006EB7747614467EA020C36
:1033A000DFF844818CEA060CC4446144DDF820C097
:1033B00007EBF121624461EA060CDFF830818CEA08
:1033C000070CC4446244DDF83CC001EBB2626644C1
:1033D00062EA070CDFF818818CEA010CC4446644E9
:1033E000DDF818C002EBB656674466EA010CDFF858
:1033F00004818CEA020CC4446744DDF834C006EB57
:103400007747614467EA020CDFF8EC808CEA060C2F
:10341000C4446144DDF810C007EBF121624461EA65
:10342000060CDFF8D8808CEA070CC4446244DDF84F
:103430002CC001EBB262664462EA070CDFF8C08080
:103440008CEA010CC4446644DDF808C002EBB656B1
:10345000674466EA010CDFF8AC808CEA020CC444D5
:103460006744DDF824C006EB7747614467EA020C45
:10347000DFF894808CEA060CC444614407EBF12128
:103480002A444944C0E90021D9198160A119C160C9
:1034900010B0BDE8F08700000C38E5FD44EABEA49A
:1034A000A9CFDE4B604BBBF670BCBFBEC67E9B286F
:1034B000FA27A1EA8530EFD4051D880439D0D4D984
:1034C000E599DBE6F87CA21F6556ACC4442229F4DA
:1034D00097FF2A43A72394AB39A093FCC3595B659C
:1034E00092CC0C8F7DF4EFFFD15D84854F7EA86F69
:1034F000E0E62CFE144301A3A111084E827E53F78F
:1035000035F23ABDBBD2D72A91D386EB2DE9F041F3
:103510000F46016905461646C1F3C50001EBC60119
:103520002961B1EBC60F696901D2491C696101EBE0
:103530005671C0F140046961A64216D32844224660
:1035400039461830FDF731F805F118012846FFF724
:10355000BFFB04E039192846FFF7BAFB403404F1F9
:103560003F00B042F6D3002000E00024321B39199E
:103570002844BDE8F0411830FDF717B8094808B5F0
:10358000816941F010018161816901F010010091B0
:10359000816941F004018161806900F004000090BC
:1035A00008BD00000010024010B586B00024174886
:1035B00000940194029403940494134905940160C7
:1035C0004821C0E901144FF47A71C0E90314446141
:1035D0008461FEF73DF808B1FDF7B6F94FF480506D
:1035E000009069460948FEF7BCF808B1FDF7ACF950
:1035F000049404A905480594FDF7BEFF002801D0F6
:10360000FDF7A2F906B010BD002C01402C000020EF
:103610000C4810B50A4901604FF4E13141600021C6
:1036200081600C22C160C0E904128161C161FEF7B2
:1036300021F9002803D0BDE81040FDF785B910BD81
:1036400000380140740000200C4810B50A490160A0
:103650004FF4E1314160002181600C22C160C0E97A
:1036600004128161C161FEF705F9002803D0BDE8AD
:103670001040FDF769B910BD00440040BC000020B7
:10368000FEE7FEE770477047FDF74EBC30B58FB0E0
:1036900028216846FDF722F814210AA8FDF71EF834
:1036A00001210804CDE900100024029402250491B0
:1036B000CDE907504FF4E01009906846FDF7B8FDDA
:1036C00008B172B6FEE70F20CDE90A054FF480601D
:1036D000CDE90C4002210AA80E94FDF7CDFC00288C
:1036E00001D072B6FEE70FB030BD7047084810B584
:1036F00000680169C943C90708D1891E0161FFF744
:103700005BFABDE810400248FEF700B810BD0000AB
:103710002C000020F0B50268204C214D214E224F94
:10372000224B4FF0804CA04209D0984207D0604510
:1037300005D0A84203D0B04201D0B84204D122F053
:10374000700E4A6842EA0E02A04209D0984207D0A1
:10375000604505D0A84203D0B04201D0B84203D1A1
:1037600022F44075CA682A434D6922F080022A4338
:1037700002608A68C2620A688262A04201D09842EE
:1037800001D109690163012141610169C90703D0C0
:10379000016921F001010161F0BD0000002C014030
:1037A0000004004000080040000C004000340140CC
:1037B00010B5846842EA032224F47F440A4322437A
:1037C000826010BD826822F070020A4342F0070155
:1037D0008160704710B5036A046A24F00104046232
:1037E000846924F0F00444EA021423F00A020A4334
:1037F0008461026210BD10B5036A046A24F01004EB
:103800000462846923F0A00324F4704444EA023281
:1038100043EA01118261016210BD01680C3151E877
:10382000002F22F4907241E80023002BF5D10168AB
:10383000143151E8002F22F0010241E80023002B4F
:10384000F5D1016B012909D101680C3151E8002F34
:1038500022F0100241E80023002BF5D1202180F84E
:10386000421000210163704770B504460068016989
:10387000E26821F44051114301612169A0680843C5
:10388000616908432168CA6841F20C639A430243A4
:10389000CA6020684169A26921F440711143416105
:1038A0001E492068884202D1FDF78CFC01E0FDF73B
:1038B00079FC00EBC00101EB00126068642180001C
:1038C000B2FBF0F3B3FBF1F36FF018067343B2FBF6
:1038D000F0F5B2FBF0F605EB8305322303EB05159B
:1038E000B5FBF1F5B6FBF1F605F0F00505EB0615B5
:1038F000B2FBF0F6B2FBF0F0B0FBF1F06FF01802A3
:10390000504306EB800003EB0010B0FBF1F02168A0
:1039100000F00F002844886070BD000000380140AE
:103920002DE9F843984617460D460446089E24E0C4
:10393000701C22D0FDF7F2FAA0EB0800B0421AD8B2
:10394000CEB12068C168490717D5802D15D0402D0C
:1039500013D00168C94309070FD4016800254068E6
:1039600000902046FFF759FF0820606484F840501B
:103970000120BDE8F8830320FBE72068006835EAF2
:10398000000004D00020B842D2D00020F1E701208E
:10399000F9E7000038B51748006801684FF00003E8
:1039A000C943090703D4416801684168009101686F
:1039B000C94389061CD44068C2B20F48B0F812143B
:1039C0004FF48264491CB1FBF4F504FB1511B0F807
:1039D00014448C4209D0B0F812440255A0F81214D5
:1039E000B0F81614491CA0F8161404480068436285
:1039F00038BD000074000020280100202C000020A9
:103A0000FEE770B54518044607E02046FEF790FF34
:103A100008B1012070BD04F50064AC42F5D300206C
:103A200070BD0000F8B5044640680D46401C60605B
:103A3000FDF774FA01460A2000901B4E63681BA034
:103A40003268FCF705FC60680A281FD3FDF766FAA8
:103A5000014624483268FCF7FBFBFFF723F801F02E
:103A6000E9F8204601F0C2F80020C5F80401C5F8C5
:103A7000080185F85401FDF751FA01461AA0326891
:103A8000FCF7E6FBFFF70EF8432009E0FDF746FAE6
:103A9000014624A03268FCF7DBFBFFF703F8152092
:103AA000FFF792F80020F8BD280000201B5B303B98
:103AB00033316D4520282564292025733A2052652D
:103AC00063657074696F6E206572726F7220287200
:103AD000657472792025752F2575291B5B306D0D56
:103AE0000A000000A45F00081B5B303B33326D49C5
:103AF00020282564292025733A2052657374617249
:103B000074696E6720596D6F64656D2066696C65B8
:103B100020726563657074696F6E2E2E2E1B5B308C
:103B20006D0D0A001B5B303B33346D442028256447
:103B3000292025733A2053656E64696E67204E41D3
:103B40004B20746F2072657472791B5B306D0D0AA7
:103B500000000000F8B5044640680D46401C606057
:103B6000FDF7DCF901460A2000901C4E63681CA09A
:103B70003268FCF76DFB60680A281FD3FDF7CEF9A9
:103B8000014625483268FCF763FBFEF78BFF01F026
:103B900051F8204601F02AF80020C5F80401C5F8C4
:103BA000080185F85401FDF7B9F901461BA03268F8
:103BB000FCF74EFBFEF776FF43200AE0FDF7AEF977
:103BC0000146637824483268FCF742FBFEF76AFF3F
:103BD0001520FEF7F9FF0020F8BD000028000020A6
:103BE0001B5B303B33316D4520282564292025732C
:103BF0003A2054696D656F7574206F6363757272D6
:103C00006564202872657472792025752F257529C1
:103C10001B5B306D0D0A0000A45F00081B5B303B8E
:103C200033326D4920282564292025733A205265B6
:103C30007374617274696E6720596D6F64656D206D
:103C400066696C6520726563657074696F6E2E2E8F
:103C50002E1B5B306D0D0A00405E000870470000AF
:103C60002DE9F043A1B00C460746FDF757F9DFF800
:103C70002481014648A0D8F80020FCF7E9FA402644
:103C80000025E9467A5D09EB450050A1FCF7ECFA06
:103C90006D1CB542F6D300268DF88060FDF73EF925
:103CA00001466B4645464BA0D8F80020FCF7D0FAF9
:103CB0003846FCF75BFC002820D0FF22394620461E
:103CC000FCF733FD84F8FF60FDF728F90146234631
:103CD0004CA02A68FCF7BCFA3846FCF747FC0744BE
:103CE0007F1CFDF71BF901463B4650A02A68FCF7F4
:103CF000AFFA6FF02F01C4F8006115E0FDF70EF97F
:103D0000014655A02A68FCF7A3FA052021B0BDE8BA
:103D1000F08300BFD4F800217F1C02EB820201EB8C
:103D200042021044C4F800013878A0F13002092A98
:103D3000F0D9FDF7F3F80146D4F8003156A02A680F
:103D4000FCF786FAD4F8000170B15E4FB84213D97F
:103D5000FDF7E4F800970146D4F800315AA02A682C
:103D6000FCF776FA0120D1E7FDF7D8F8014664A008
:103D70002A68FCF76DFAF5E7C4F80461C4F8086135
:103D8000FDF7CCF801466AA02A68FCF761FA00202A
:103D9000BCE70000280000201B5B303B33346D443F
:103DA00020282564292025733A2050617273696E9A
:103DB000672066696C6520696E666F207061636B51
:103DC00065742E2E2E1B5B306D0D0A002530325887
:103DD000000000001B5B303B33326D492028256416
:103DE000292025733A205061636B6574302072611D
:103DF000775B302D36335D3A2025731B5B306D0DBC
:103E00000A0000001B5B303B33326D4920282564DB
:103E1000292025733A2046696C656E616D653A20EC
:103E200025731B5B306D0D0A000000001B5B303BEF
:103E300033326D4920282564292025733A204669AC
:103E40006C6573697A65207374723A20272573272D
:103E50001B5B306D0D0A00001B5B303B33326D493C
:103E600020282564292025733A20456D7074792017
:103E700066696C656E616D65202D207472616E736C
:103E80006D697373696F6E20636F6D706C657465B7
:103E90001B5B306D0D0A00001B5B303B33326D49FC
:103EA00020282564292025733A2046696C652073F3
:103EB000697A653A2025752062797465731B5B30D9
:103EC0006D0D0A00007E07001B5B303B33316D45F2
:103ED00020282564292025733A2046696C652074C2
:103EE0006F6F206C617267653A202575203E202532
:103EF000752062797465731B5B306D0D0A000000DC
:103F00001B5B303B33316D45202825642920257308
:103F10003A20496E76616C69642066696C6520732D
:103F2000697A653A20301B5B306D0D0A0000000095
:103F30001B5B303B33326D492028256429202573D3
:103F40003A2046696C6520696E666F2070617273F5
:103F50006564207375636365737366756C6C791B38
:103F60005B306D0D0A00000070B50C460546006818
:103F70001A49884201D0072070BD206068686060DF
:103F8000A868A060102205F10C0104F10C00FCF7F8
:103F90000CFBE869E061286A2062102205F1240127
:103FA00004F12400FCF701FB686B6063A86BA0635D
:103FB000E86BE0636068012801D0022070BDE06911
:103FC0000749884201D0062070BDA06810B105499C
:103FD000884201D9052070BD002070BD785634128A
:103FE00000820008007E07002DE9FC4105460C46D2
:103FF000B0F81204D1F80421D1F8001113188B4243
:1040000000D9881A86B2FCF789FF1E4F0096014638
:1040100095F810341C483A68FCF71AF932462146E4
:10402000284600F035F800282AD1D4F8040130449D
:10403000C4F80401D4F80801401CC4F808016878E9
:1040400004F58074401C6870FCF768FF0146A268A4
:104050002068CDE9000263680C483A68FCF7F8F87C
:10406000FEF720FD0620FEF7AFFD74E84001814217
:1040700005D32046E968BDE8FC4100F005BE0020FC
:10408000BDE8FC8128000020945E0008C4600008A0
:104090002DE9F8430F4690F81014444E1546044697
:1040A00000F11009012902D197F8540160B1FCF721
:1040B00035FF00950146A3683D483268FCF7C8F813
:1040C0002A464946A06852E0FCF728FF0146B04660
:1040D00038483268FCF7BCF8402D13D2FCF71EFFBD
:1040E0000146402000902B463348D8F80020FCF7CA
:1040F000AFF81820FEF768FD1820FEF765FDFEF703
:10410000D1FC3FE007F58A714846FFF72DFF060016
:1041100007D0FCF703FF014633462848D8F80020B3
:104120002EE0012087F85401FCF7F8FE01464646D0
:1041300023A0D8F80020FCF78BF8FCF7EFFE01462F
:10414000D7F81C312DA03268FCF782F8FCF7E6FEA8
:104150000146D7F8303135A03268FCF779F8403D98
:104160002D0404F150012D0C1DD02A46A068FEF745
:1041700054FC50B1FCF7D2FE0146A36837A0326868
:10418000FCF766F80120BDE8F883E0682844E060A9
:10419000A0682844A060FCF7C1FE01462B463D48BC
:1041A0003268FCF755F80020EDE7000028000020F9
:1041B000D85E0008205D0008B45D00081C5F0008A0
:1041C0001B5B303B33326D49202825642920257341
:1041D0003A204669726D7761726520686561646531
:1041E00072207061727365642073756363657373A5
:1041F00066756C6C791B5B306D0D0A001B5B303B88
:1042000033326D4920282564292025733A204669D8
:10421000726D776172652073697A653A2025752021
:1042200062797465731B5B306D0D0A001B5B303B5C
:1042300033326D4920282564292025733A20537490
:1042400061727420616464726573733A20307825FA
:104250003038581B5B306D0D0A0000001B5B303B93
:1042600033316D4520282564292025733A20466C7A
:10427000617368207772697465206661696C656432
:10428000206174203078253038581B5B306D0D0A62
:1042900000000000306000082DE9F0410C460546A2
:1042A000FCF73CFE344E014634A03268FBF7D0FFE9
:1042B000214605F11000FFF7D3FC052807D00028A0
:1042C00014D0FCF72BFE01463BA032682BE0FCF734
:1042D00025FE014645A03268FBF7BAFFFEF7E2FB78
:1042E0000620FEF771FC0220287042E0FCF716FE63
:1042F00001464E483268FBF7ABFFFEF7D3FBFCF7F5
:104300000DFE01464AA03268FBF7A2FF574FD4F8D2
:10431000001138460144FEF72FFB70B1FCF7FEFD9B
:10432000014653A03268FBF793FFFEF7BBFB152055
:10433000FEF74AFC0120BDE8F081FCF7EFFDD4F860
:104340000031014655A004F580743268FBF780FF08
:1043500000206060A06084F85400C5E90270FEF798
:10436000A1FB0620FEF730FC4320FEF72DFC0120C8
:1043700068700020DFE70000280000201B5B303B56
:1043800033326D4920282564292025733A20507244
:104390006F63657373696E672066696C6520686515
:1043A00061646572207061636B65742E2E2E1B5BD9
:1043B000306D0D0A000000001B5B303B33316D4552
:1043C00020282564292025733A2046696C652068D9
:1043D00065616465722070617273696E67206661E1
:1043E000696C65641B5B306D0D0A00001B5B303B24
:1043F00033326D4920282564292025733A205472D0
:10440000616E736D697373696F6E20636F6D706C2D
:10441000657465642028656D7074792066696C65C3
:104420006E616D65291B5B306D0D0A00EC5B000849
:104430001B5B303B33326D492028256429202573CE
:104440003A2045726173696E67206170706C6963B0
:104450006174696F6E20666C61736820617265615A
:104460002E2E2E1B5B306D0D0A000000008200080E
:104470001B5B303B33316D45202825642920257393
:104480003A20466C617368206572617365206661CD
:10449000696C65641B5B306D0D0A00001B5B303B73
:1044A00033326D4920282564292025733A20466C33
:1044B00061736820657261736520636F6D706C65F0
:1044C0007465643A2025752062797465731B5B30CE
:1044D0006D0D0A0070B50D460646FEF7B8F80446A5
:1044E0000AE000BFFEF70EFB30B129463046FEF76A
:1044F00061FB002806D004E0FEF7A9F8001BA842E3
:10450000F0D3022070BD00002DE9F041ADF5836DC0
:104510000646FCF703FD654D014665A02A68FBF7DA
:1045200097FEFCF7FBFC714F01463B4670A02A68E2
:10453000FBF78EFEFCF7F2FC01467C4B7CA02A6860
:10454000FBF786FE00248DF804404FF001088DF83B
:104550000580CDE902478DF814440494ADF8164463
:10456000C6F80441C6F8084186F85441FCF7D6FC69
:1045700001467D482A68FBF76BFE7C4F87F8008078
:10458000FEF790FA4320FEF71FFB8DF8048001A888
:1045900000F04AF960B102285AD003285DD00628FD
:1045A00044D0314601A8FFF73DFA012837D061E039
:1045B0009DF8141441B19DF8050081420CD131469B
:1045C00001A8FFF711FD03E0314601A8FFF764FEE3
:1045D0000028EAD102944DE0401E81420ED1FCF742
:1045E0009DFC01469DF8143461A02A68FBF730FE5B
:1045F000FEF758FA0620FEF7E7FAEBE7FCF78EFC29
:1046000001469DF8050000909DF8143467482A681B
:10461000FBF71EFEFEF746FA1520FEF7D5FA0298C4
:104620000A2827D303208DF8040029E0FCF776FC44
:1046300001465F482A68FBF70BFEFEF733FA0620B7
:10464000FEF7C2FA4320FEF7BFFA8DF80540C1E736
:10465000314601A8FFF77EFAA7E7FCF75FFC0146A9
:1046600054A02A68FBF7F4FD3C7003200DF5836D20
:10467000BDE8F0819DF80400022801D0032886D10E
:104680003C70C0B2022808D0FCF748FC014658A094
:104690002A68FBF7DDFD0120E8E7FCF73FFC014657
:1046A00060482A68FBF7D4FD0020DFE728000020DF
:1046B0001B5B303B33326D4920282564292025734C
:1046C0003A205374617274696E6720596D6F646526
:1046D0006D2066696C6520726563657074696F6EC4
:1046E0002E2E2E1B5B306D0D0A000000008200088C
:1046F0001B5B303B33326D4920282564292025730C
:104700003A204170706C69636174696F6E207374D4
:1047100061727420616464726573733A2030782525
:104720003038581B5B306D0D0A000000007E07001A
:104730001B5B303B33326D492028256429202573CB
:104740003A204D6178206170706C69636174696FA3
:104750006E2073697A653A202575206279746573D5
:104760001B5B306D0D0A00008C5C00080800002007
:104770001B5B303B33346D4420282564292025738E
:104780003A204475706C6963617465207061636B75
:1047900065742025642C2073656E64696E67204102
:1047A000434B1B5B306D0D0A00000000FC5D0008F0
:1047B000746000081B5B303B33316D452028256455
:1047C000292025733A205472616E736D6973736981
:1047D0006F6E2063616E63656C6C65642062792026
:1047E00073656E6465721B5B306D0D0A000000001E
:1047F0001B5B303B33316D45202825642920257310
:104800003A20596D6F64656D207472616E736D69C5
:104810007373696F6E206661696C6564211B5B3020
:104820006D0D0A00085B00082DE9F04188B00446D0
:10483000FDF70DFF694D06464FF4FA67642106A89F
:10484000FFF748FE78B1FDF702FF801BB842F5D3B1
:10485000FCF764FB014662A02A68FBF7F9FC022022
:1048600008B0BDE8F0819DF81800042816D018287B
:104870001DD0012824D00228E0D14002A4F812045F
:104880004FF4FA77394604A8FFF724FE060019D042
:10489000FCF744FB01465FA02A6866E0FCF73EFB9C
:1048A00001466AA02A68FBF7D3FC0620D8E7FCF78C
:1048B00035FB014674A02A68FBF7CAFC0320CFE74A
:1048C0008020DBE7B846394605A8FFF703FE06005F
:1048D00005D0FCF723FB014677482A6845E09DF8A0
:1048E0001400C043C1B29DF8100081420AD0FCF709
:1048F00015FB01469DF8140000909DF810306FA044
:104900002A6858E084F81004002612E0A019C82193
:104910001030FFF7DFFD070009D0FCF7FFFA014672
:10492000334676A02A68FBF793FC384698E7761C56
:10493000B6B2B4F81204B042E8D84746414602A8DD
:10494000FFF7C8FD060005D0FCF7E8FA01467AA09B
:104950002A680AE0394603A8FFF7BCFD060008D024
:10496000FCF7DCFA014682A02A68FBF771FC3046AE
:1049700076E79DF80C009DF80810002640EA012714
:1049800004F11000B4F81214874A08E010F8013B53
:1049900083EA162332F8133083EA06239EB2491EB7
:1049A00089B2F3D2B7420AD0FCF7B8FA01460096B2
:1049B0003B467E482A68FBF74BFC012050E7FCF79A
:1049C000ADFA0146B4F81204CDE900079DF81030A5
:1049D00077A02A68FBF73CFC002041E72800002074
:1049E0001B5B303B33316D4520282564292025731E
:1049F0003A20486561646572207265636570746908
:104A00006F6E2074696D656F75741B5B306D0D0A78
:104A1000000000001B5B303B33316D4520282564CE
:104A2000292025733A205061636B6574206E756D83
:104A300062657220726563657074696F6E2066616D
:104A4000696C65641B5B306D0D0A00001B5B303BBD
:104A500033326D4920282564292025733A20526578
:104A600063656976656420454F542028456E64204F
:104A70006F66205472616E736D697373696F6E290E
:104A80001B5B306D0D0A00001B5B303B33316D4505
:104A900020282564292025733A20526563656976AC
:104AA00065642043414E202843616E63656C291B79
:104AB0005B306D0D0A000000605F00081B5B303B3F
:104AC00033316D4520282564292025733A20506113
:104AD000636B6574206E756D626572206D69736DB0
:104AE000617463683A20706B743D25642C20636F99
:104AF0006D703D25641B5B306D0D0A001B5B303B08
:104B000033316D4520282564292025733A204461DE
:104B1000746120726563657074696F6E2066616987
:104B20006C656420617420627974652025641B5B68
:104B3000306D0D0A000000001B5B303B33316D45CA
:104B400020282564292025733A2043524320686990
:104B50006768206279746520726563657074696F37
:104B60006E206661696C65641B5B306D0D0A000028
:104B70001B5B303B33316D4520282564292025738C
:104B80003A20435243206C6F77206279746520721B
:104B90006563657074696F6E206661696C65641B1E
:104BA0005B306D0D0A0000002C530008685D0008A2
:104BB0001B5B303B33346D4420282564292025734A
:104BC0003A205061636B657420232564204F4B3A73
:104BD0002073697A653D25642C204352433D30782B
:104BE000253034581B5B306D0D0A00000121017027
:104BF0004170034A0021C0E90112C1607047000002
:104C00000082000810B5014640220748FDF705FF65
:104C1000002808D0FCF782F90146044802680448DD
:104C2000FBF716FB012010BD0080000828000020C3
:104C3000EC5F000810B51820FDF7C6FF1820FDF73F
:104C4000C3FFFCF76BF9014603480268BDE810405A
:104C500002A0FBF7FDBA0000280000201B5B303BE0
:104C600033326D4920282564292025733A20436179
:104C70006E63656C207369676E616C2073656E741A
:104C80001B5B306D0D0A00002DE9F041884605469A
:104C9000FCF744F92E4C01462E482268FBF7D8FA5F
:104CA000FCF73CF9014643462BA02268FBF7D0FAFB
:104CB000FCF734F9014638A02268FBF7C9FA434FE4
:104CC00005F590723846D5F81C1100F0FDF8060085
:104CD00015D0FCF723F9014633463DA02268FBF7C7
:104CE000B7FAFCF71BF9014649482268FBF7B0FA0E
:104CF00041463846FEF785FE0120BDE8F081FCF70D
:104D00000DF9014643A02268FBF7A2FAFCF706F969
:104D100001464FA02268FBF79BFA05F58A70FFF762
:104D200071FF28B1FCF7FAF801465648226804E002
:104D3000FCF7F4F8014654A02268FBF789FAFCF767
:104D4000EDF801465F482268FBF782FA0020D4E7BD
:104D500028000020D45C00081B5B303B33326D49D7
:104D600020282564292025733A20546F74616C2013
:104D70006669726D77617265206461746120726525
:104D80006365697665643A20257520627974657378
:104D90001B5B306D0D0A00001B5B303B33326D49ED
:104DA00020282564292025733A2056657269667982
:104DB000696E67206669726D77617265204D443552
:104DC0002E2E2E1B5B306D0D0A00000000820008A5
:104DD0001B5B303B33316D4520282564292025732A
:104DE0003A204669726D77617265207665726966F0
:104DF00069636174696F6E206661696C65643A20ED
:104E00007374617475733D25641B5B306D0D0A000E
:104E1000445C00081B5B303B33326D49202825641D
:104E2000292025733A204669726D77617265207674
:104E30006572696669636174696F6E207375636317
:104E400065737366756C211B5B306D0D0A00000085
:104E50001B5B303B33326D492028256429202573A4
:104E60003A20536176696E67206669726D77617268
:104E700065206865616465722E2E2E1B5B306D0D9A
:104E80000A0000004C5B00081B5B303B33326D496D
:104E900020282564292025733A204669726D7761A0
:104EA000726520686561646572207361766564204F
:104EB0007375636365737366756C6C791B5B306DBA
:104EC0000D0A0000905B00082DE9F043EFB00746A3
:104ED00016460D4640A8FDF7E9FE4FF48079002004
:104EE000E84615E000F58074AC4202D92A1A002188
:104EF00007E04A4600213B1813F801C008F801C03A
:104F0000491C9142F7D3694640A8FEF7FFFA2046B4
:104F1000A842E7D340A959A8FDF770FE00245DAF71
:104F20000DF5CC7859AD07EB44002A5D17A1FBF7CE
:104F30009BF9325D08EB440014A1FBF795F9641C62
:104F4000102CF0D300208DF894018DF8B801FBF7F8
:104F5000E5FF104C01465DAB0FA02268FBF778F926
:104F6000FBF7DCFF014666AB15A02268FBF770F982
:104F700000202A5C315C8A4203D004206FB0BDE877
:104F8000F083401C1028F4D30020F7E72530325876
:104F900000000000280000201B5B303B33326D49CD
:104FA00020282564292025733A204D44352063614B
:104FB0006C633A2025731B5B306D0D0A0000000006
:104FC0001B5B303B33326D49202825642920257333
:104FD0003A204D4435206578706563743A20257316
:104FE0001B5B306D0D0A00000907090E002804DB69
:104FF00000F1E02080F80014704700F00F0000F18D
:10500000E02080F8141D704730380A2801D20120B2
:10501000704700207047704713B50748007808B103
:10502000052301E04FF47A73012269460348FCF737
:10503000E3FC00981CBD000008000020BC0000201C
:1050400070B58AB0044624216846FBF747FB04F19B
:10505000240116A0FBF7FCF804F1340119A0FBF7BA
:10506000F7F8A1681CA0FBF7F3F8E16921A0FBF7B2
:10507000EFF8216A25A0FBF7EBF814F10C056E465A
:105080000DD0002406EB44002B5D29A20321FBF781
:10509000FFF8641C102CF5DB002086F82000694620
:1050A00025A0FBF7D5F80AB070BD00004669726D07
:1050B000776172652056657273696F6E3A20257349
:1050C0000D0A000054617267657420436869703A84
:1050D0002025730D0A0000004669726D77617265C4
:1050E0002053697A653A2025752062797465730DBD
:1050F0000A00000053746172742041646472657325
:10510000733A203078253038580D0A004275696CA2
:10511000642054696D653A2025752028556E69789C
:105120002074696D657374616D70290D0A0000004B
:1051300025303258000000004D4435204861736826
:105140003A2025730D0A000010B5FBF7E7FE094C65
:10515000014609A02268FBF77BF8FBF7DFFE01465A
:1051600014A02268FBF774F8FCF798FC72B60020D4
:1051700010BD0000240000201B5B303B33346D4425
:1051800020282564292025733A204465696E6974B6
:1051900069616C697A696E6720616C6C20706572F8
:1051A0006970686572616C732E2E2E1B5B306D0DFD
:1051B0000A0000001B5B303B33346D44202825641B
:1051C000292025733A2044697361626C696E6720F7
:1051D000616C6C20696E74657272757074732E2EBA
:1051E0002E1B5B306D0D0A0070B504000DD01D48FC
:1051F000D0F800122160D0F804024FF480526060B1
:10520000B2EB514F03D1012102E0012070BD00211A
:10521000154D217229B18021B1EB105F08D1012118
:1052200007E0FBF77BFE0146236810A02A6815E023
:105230000021617229B110F00100A07208D0002095
:1052400070BDFBF76BFE0146636818482A6805E0ED
:10525000FBF764FE0146636815A02A68FAF7F8FFB9
:10526000022070BD00800008240000201B5B303B42
:1052700033346D4420282564292025733A20537443
:1052800061636B20706F696E7465722076616C6902
:10529000646174696F6E206661696C65643A203080
:1052A00078253038581B5B306D0D0A0064580008B3
:1052B0001B5B303B33346D44202825642920257343
:1052C0003A205468756D62206D6F6465206368656F
:1052D000636B206661696C65643A203078253038EC
:1052E000581B5B306D0D0A00FBF726FEFEF7CEF96A
:1052F000FEF744F9FEF7A8F9FCF778FDFCF7D2FDBC
:10530000FEE7010202030405060708090A0B0C0D5B
:105310000E0F101000000000000000000102030446
:105320000607080900000000010203040000211024
:10533000422063308440A550C660E77008812991FF
:105340004AA16BB18CC1ADD1CEE1EFF131121002A7
:1053500073325222B5529442F772D662399318834F
:105360007BB35AA3BDD39CC3FFF3DEE36224433473
:1053700020040114E664C774A44485546AA54BB59F
:1053800028850995EEE5CFF5ACC58DD55336722647
:1053900011163006D776F6669556B4465BB77AA7EF
:1053A00019973887DFF7FEE79DD7BCC7C448E55893
:1053B0008668A7784008611802282338CCC9EDD93F
:1053C0008EE9AFF9488969990AA92BB9F55AD44AE7
:1053D000B77A966A711A500A333A122AFDDBDCCB8F
:1053E000BFFB9EEB799B588B3BBB1AABA66C877CB3
:1053F000E44CC55C222C033C600C411CAEED8FFDDF
:10540000ECCDCDDD2AAD0BBD688D499D977EB66E86
:10541000D55EF44E133E322E511E700E9FFFBEEF2E
:10542000DDDFFCCF1BBF3AAF599F788F8891A981F0
:10543000CAB1EBA10CD12DC14EF16FE18010A100DA
:10544000C230E3200450254046706760B9839893CA
:10545000FBA3DAB33DC31CD37FE35EF3B10290122A
:10546000F322D2323542145277625672EAB5CBA596
:10547000A89589856EF54FE52CD50DC5E234C3247A
:10548000A01481046674476424540544DBA7FAB76A
:105490009987B8975FE77EF71DC73CD7D326F236CA
:1054A0009106B01657667676154634564CD96DC9B6
:1054B0000EF92FE9C899E9898AB9ABA9445865481A
:1054C00006782768C018E1088238A3287DCB5CDB0A
:1054D0003FEB1EFBF98BD89BBBAB9ABB754A545A6A
:1054E000376A167AF10AD01AB32A923A2EFD0FEDD6
:1054F0006CDD4DCDAABD8BADE89DC98D267C076CBA
:10550000645C454CA23C832CE01CC10C1FEF3EFFA9
:105510005DCF7CDF9BAFBABFD98FF89F176E367E09
:10552000554E745E932EB23ED10EF01E30313233A2
:1055300034353637383941424344454640305800C7
:1055400030313233343536373839616263646566F9
:105550004030780004000008000000000000000255
:1055600000010000100000001B5B303B33316D4533
:1055700020282564292025733A20557067726164BC
:1055800065206661696C65642C2072657472796946
:105590006E6720696E202575206D732E2E2E2028B3
:1055A000617474656D70742025752F2575291B5BDA
:1055B000306D0D0A000000001B5B303B33326D493B
:1055C00020282564292025733A2053746172746958
:1055D0006E6720596D6F64656D20757067726164C8
:1055E000652028617474656D70742025752F25758C
:1055F000292E2E2E1B5B306D0D0A00001B5B303BED
:1056000033326D4920282564292025733A204E6FB6
:105610002076616C6964206170706C696361746983
:105620006F6E20666F756E642C20656E746572698E
:105630006E672075706772616465206D6F64652E9A
:105640002E2E1B5B306D0D0A000000001B5B303BF3
:1056500033316D4520282564292025733A20426F77
:105660006F746C6F6164657220656E7465726564D9
:10567000206572726F722073746174652C2072657C
:105680007374617274696E672E2E2E1B5B306D0D04
:105690000A0000001B5B303B33346D442028256436
:1056A000292025733A204E6F2075706772616465FA
:1056B00020666C61672064657465637465642C2082
:1056C000636865636B696E67206170706C696361A4
:1056D00074696F6E2E2E2E1B5B306D0D0A0000005C
:1056E0001B5B303B33316D45202825642920257311
:1056F0003A204D617820757067726164652072652B
:105700007472696573207265616368656420282519
:1057100075292C20636865636B696E6720666F72FC
:10572000206578697374696E67206170702E2E2E03
:105730001B5B306D0D0A00001B5B303B33326D4943
:1057400020282564292025733A2044652D696E6937
:105750007469616C697A696E672049415020426FB3
:105760006F746C6F61646572206D6F64756C6573C6
:105770002E2E2E1B5B306D0D0A0000001B5B303B94
:1057800033326D4920282564292025733A2055702D
:10579000677261646520666C616720636C65617225
:1057A00065642C207374617274696E67207570670C
:1057B000726164652070726F636573732E2E2E1B89
:1057C0005B306D0D0A0000001B5B303B33326D49CE
:1057D00020282564292025733A2049415020426F12
:1057E0006F746C6F616465722064652D696E697495
:1057F00069616C697A6174696F6E20636F6D706C3A
:10580000657465641B5B306D0D0A00004941505F93
:10581000426F6F746C6F6164657200001B5B303B9C
:1058200033346D4420282564292025733A204E6F97
:10583000206669726D776172652068656164657262
:1058400020666F756E642C206A756D70696E6720B6
:105850006469726563746C792E2E2E1B5B306D0D3E
:105860000A0000001B5B303B33346D442028256464
:10587000292025733A2052657365742068616E642F
:105880006C657220616464726573732076616C6903
:10589000646174696F6E206661696C65643A20307A
:1058A00078253038581B5B306D0D0A001B5B303B90
:1058B00033346D4420282564292025733A2052650D
:1058C0006164696E67206669726D776172652068D0
:1058D00065616465722066726F6D206164647265D3
:1058E0007373203078253038581B5B306D0D0A00FB
:1058F0001B5B303B33346D442028256429202573FD
:105900003A205570677261646520666C6167206338
:105910006865636B3A20616464723D307825303885
:10592000582C2076616C75653D3078253038581BD1
:105930005B306D0D0A0000001B5B303B33346D445F
:1059400020282564292025733A204D61676963204A
:105950006E756D626572206D69736D617463683A0E
:105960002065787065637465643D307825303858FB
:105970002C2061637475616C3D3078253038581B7C
:105980005B306D0D0A0000001B5B303B33346D440F
:1059900020282564292025733A204170706C6963A2
:1059A0006174696F6E2076616C69646174696F6E91
:1059B000206661696C65643A2053503D307825302B
:1059C00038582C20526573657448616E646C65723A
:1059D0003D3078253038581B5B306D0D0A000000D3
:1059E0001B5B303B33346D4420282564292025730C
:1059F0003A204A756D7020696E666F3A2053503DAB
:105A00003078253038582C20526573657448616EA3
:105A1000646C65723D3078253038581B5B306D0DF5
:105A20000A0000001B5B303B33346D4420282564A2
:105A3000292025733A205570677261646520666C71
:105A400061672064657465637465642C20656E7499
:105A50006572696E672075706772616465206D6F2D
:105A600064651B5B306D0D0A000000001B5B303B62
:105A700033346D4420282564292025733A20417051
:105A8000706C69636174696F6E2076616C696461C2
:105A900074696F6E206661696C65642C2063616E49
:105AA00063656C696E67206A756D701B5B306D0D88
:105AB0000A0000001B5B303B33346D442028256412
:105AC000292025733A204669726D776172652068D6
:105AD00065616465722072656164207375636365D6
